:1000000012C0A9C02BC02AC029C028C027C026C042
:1000100025C024C023C022C021C020C01FC01EC0D4
:100020001DC01CC01BC011241FBECFE5D4E0DEBF25
:10003000CDBF10E0A0E6B0E0E6E9F9E002C005902F
:100040000D92A438B107D9F720E0A4E8B0E001C0D0
:100050001D92AD3DB207E1F707D39BC4D1CF8FB955
:10006000779BFECF8EB18FB108950F931F93CF93DF
:10007000DF93C82FC298F3DF80938B009C2F907E74
:10008000903221F118F4992339F05BC09036B1F128
:10009000903A09F449C055C0CF712C2F30E02A5056
:1000A00031092230310510F0C03159F4CEE7D0E0EB
:1000B00009E710E08FEFD3DF8A93C017D107D1F79C
:1000C00040C08FEFCCDF80938C003BC0CF712C2FD2
:1000D00030E02A5031092230310510F0C03151F49E
:1000E000C3E8D0E00EE710E08A91B9DFC017D1076E
:1000F000D9F727C080918C00B2DF23C0C0FF0FC0AA
:10010000C091B800CC23E9F0D0E0C754DF4F8FEFA7
:10011000A6DF8A9380E0C93BD807C9F712C08FEFEA
:100120009EDF80938C000DC0C091B800CC2349F0B5
:10013000D0E0C754DF4F8A9192DF80E0C93BD807F7
:10014000D1F7C29A8AE18A95F1F700C0DF91CF9189
:100150001F910F9108951F920F920FB60F921124C5
:100160002F933F934F935F936F937F938F939F93BF
:10017000AF93BF93EF93FF9380919E00811124C0B2
:100180008FEF73DF80918B0085FF1AC082E0809330
:100190008A0087E16ADF80918C0080FD25C080E6BF
:1001A00064DF80918C00813240F48093B80081E656
:1001B0005CDF83E080938A0017C082EE56DF14C0B4
:1001C00084E080938A0010C080E64FDF80918C002D
:1001D000813218F082EE49DF07C08093B80081E6D3
:1001E00044DF81E080938A008EE780938C0087E271
:1001F0003CDF81EE3ADFFF91EF91BF91AF919F918C
:100200008F917F916F915F914F913F912F910F90BF
:100210000FBE0F901F9018958091880090918900D3
:10022000892BE1F1109289001092880090917D0055
:100230008091820098132FC090917C008091810062
:10024000981329C090917B0080918000981323C05F
:1002500090917A0080917F0098131DC09091790051
:1002600080917E00981317C081EEFFDE80EAFDDEEC
:100270008FE19EE40197F1F700C00000C09A95E37A
:100280009A95F1F70000C0988FE19EE40197F1F78D
:1002900000C00000089585E080938A000895CF9300
:1002A000DF93D82F929AC29ABA9AC598BD9AC098ED
:1002B000B89ABB9ABC9A80E48ABF8BB780648BBF24
:1002C000789480E58DB92FE78FEA92E02150804045
:1002D0009040E1F700C00000D0939E00C1E0C093C1
:1002E0008C0081E2C2DEC0938C0082E2BEDE83E03D
:1002F00080938C0083E2B9DE8FE280938C0084E2ED
:10030000B4DEC0938C0085E2B0DE86E280938C0080
:10031000ACDE8AE2AADE80E3A8DEC0938C008CE328
:10032000A4DE87E080938C008DE39FDED11115C0A1
:100330008EE480938C0080E298DE2FEF80E792E0DD
:10034000215080409040E1F700C0000081E090E043
:1003500090938900809388000CC08FE380938C0079
:1003600080E283DE8FE097E20197F1F700C00000A2
:10037000C09ADF91CF910895AA98A29A8FEB93E04B
:100380000197F1F700C00000A29890EA9A95F1F762
:1003900083B3E7E4F3E03197F1F700C00000847025
:1003A0000895AB98A39A8FEB93E00197F1F700C003
:1003B0000000A39890EA9A95F1F783B3E7E4F3E09D
:1003C0003197F1F700C0000088700895AA98A29AAA
:1003D00092E09A95F1F700C08111A29880EA8A957F
:1003E000F1F7A2980895AB98A39A92E09A95F1F745
:1003F00000C08111A39880EA8A95F1F7A398089527
:10040000AA98A29A82E08A95F1F700C0A29895E294
:100410009A95F1F7000083B398E79A95F1F782FB7C
:10042000882780F90895AB98A39A82E08A95F1F71E
:1004300000C0A39895E29A95F1F7000083B398E77E
:100440009A95F1F783FB882780F90895CF93DF937E
:10045000C8E0D0E0D5DF20E8829FC0011124D69506
:10046000D82BC150B9F78D2FDF91CF910895CF933D
:10047000DF93C8E0D0E0D7DF20E8829FC0011124DD
:10048000D695D82BC150B9F78D2FDF91CF91089514
:10049000CF93DF93D82FC8E08D2F817097DFD6954B
:1004A000C150D1F7DF91CF910895CF93DF93D82F2B
:1004B000C8E08D2F817097DFD695C150D1F7DF91BD
:1004C000CF9108951F93CF93DF93EC0155DF8CEC10
:1004D000DFDF84E4DDDF94DF8823E9F34DDF8CEC9C
:1004E000D7DF8EEBD5DFB2DF182FB0DF912F9295DB
:1004F0009F701F70482F441F4427441F50E05983AA
:100500004883877040E1849F90011124292B3B830D
:100510002A8341E752E0149F9001159F300D11246A
:100520003D832C83DF91CF911F9108951F93CF932B
:10053000DF93EC0136DF8CECB8DF84E4B6DF73DFE9
:100540008823E9F32EDF8CECB0DF8EEBAEDF8FDF9C
:10055000182F8DDF912F92959F701F70482F441F89
:100560004427441F50E059834883877040E1849FAB
:1005700090011124292B3B832A8341E752E0149FE9
:100580009001159F300D11243D832C83DF91CF9175
:100590001F910895CF93DF93809177009091780019
:1005A000019739F081E090E0909378008093770094
:1005B00076DE80918A008130D9F4AC9A81E090E0B7
:1005C0009093870080938600E9EBF0E0AEE8B0E01E
:1005D00083EC90E021912D93CFECD7E02197F1F7B8
:1005E00000C00000E817F907A9F710928A00AC983C
:1005F0008FE19EE40197F1F700C00000DF91CF91F9
:100600000895CF93DF938091770090917800892BA4
:1006100031F0109278001092770080E040DEAD9AC1
:10062000A0EAB0E0E9EBF0E021E041E050E0C8EB07
:10063000D0E030918A00332331F050938900409309
:10064000880010928A0028833D9131938FEC97E0C7
:100650000197F1F700C000002F5F2B3051F7DCDD70
:10066000AD98DF91CF910895CF93DF93CDB7DEB7EB
:1006700062970FB6F894DEBF0FBECDBF80EC87B98E
:1006800080EE86B988E18AB986E880BD89E189B9BA
:1006900084B3806384BBB99A8091770000DEAC9A02
:1006A000AD9A2FEF40E752E0215040405040E1F733
:1006B00000C00000AC98AD98212C312C0F2EF0E931
:1006C000CF2EF0E0DF2EF02D0F2EFCEAEF2EF0E023
:1006D000FF2EF02D0F2EFFE8AF2EF0E0BF2EF02DF5
:1006E0000F2EFEE86F2EF0E07F2EF02D0F2EF8E992
:1006F0008F2EF0E09F2EF02D0F2EF7E94F2EF0E019
:100700005F2EF02D85B190E090939D0080939C002A
:1007100084B190E09093B1008093B0003BDFE09112
:100720008400F0918500EE0FFF1FEE59FF4F80818E
:100730009181892B09F44DC0022D132D2BDF85B13A
:1007400090E090939D0080939C0084B190E0909302
:10075000B1008093B000F601808190E09093850015
:1007600080938400C19868E270E0C801EBD0609388
:10077000AA007093AB008093AC009093AD00F7019A
:1007800080819181892B29F4F5018081813009F4E0
:10079000C19A8091860090918700019751F4E09171
:1007A0008400F0918500EE0FFF1FEE59FF4F00818E
:1007B00011810F5F1F4FE0918400F0918500EE0FD3
:1007C000FF1FEE59FF4F808191810817190708F428
:1007D000B5CF8091860090918700019751F4F30185
:1007E00081918CB9E815F905D9F7209286003092ED
:1007F0008700F30180818E3409F079C0F201808195
:100800008E3409F07FCFCE0101965CDE8FE99FE048
:100810000197F1F700C00000CE01079687DEA9819D
:10082000BA81B695BA2FAA27B795A7958B819C81D7
:10083000A82BB92BB0939B00A0939A002D813E81E9
:100840003093B2001092B300F901FF27F093DC005F
:10085000E093DB004F8158855695542F44275795D8
:10086000479589859A85BA01682B792B7A8B698B94
:100870007093B7006093B6008B859C859093B4000D
:100880001092B5008C0111271093DA000093D90063
:1008900070919C007E871D864091B0005091B10000
:1008A0006D857E85462B572BBA0176956795769593
:1008B0006795709399006093980081E48093A000FD
:1008C000A093A1003093A200E093A3006093A40042
:1008D00079897093A5009093A6000093A70080915A
:1008E00060008093A80082E48093A9008ADEF3016F
:1008F0008081863409F006CFF2018081863409F0C8
:1009000001CF8FE19EE40197F1F700C00000EDE612
:10091000F0E0A0EAB0E047E750E021912D938FECA2
:1009200097E00197F1F700C00000E417F507A9F779
:10093000F301108266DE8FE19EE40197F1F700C0BB
:100940000000E0CE97FB072E16F4009406D077FD4A
:1009500008D00BD007FC05D03EF4909581959F4FB1
:100960000895709561957F4F0895AA1BBB1B51E1B7
:1009700007C0AA1FBB1FA617B70710F0A61BB70B0F
:10098000881F991F5A95A9F780959095BC01CD01B4
:060990000895F894FFCF6A
:10099600A0002A0054014803180BC6164B4B4B4BBC
:1009A6004B4B4B4B4B4B4B01000001030700000127
:0409B6000307000033
:00000001FF
