S00D000054525F76332E7372656369
S11300000C942A000C94DC010C9447000C944700D7
S11300100C9447000C9447000C9447000C94470040
S11300200C9447000C9447000C9447000C9405036F
S11300300C9447000C9447000C9447000C94470020
S11300400C9447000C9447000C9447000C94470010
S11300500C94470011241FBECFE5D4E0DEBFCDBF12
S113006011E0A0E6B0E0E8ECF6E302C005900D92E2
S1130070A63FB107D9F723E0A6EFB1E001C01D9276
S1130080AC31B207E1F70E94E3140C94621B0C94A8
S11300900000C29A82E08A95F1F700C0C2980895E0
S11300A0CF93C82F662311F0C09A01C0C098C1989D
S11300B0BB9A8C9A8D9A8E9A969895989498C39890
S11300C0CC230CF4969AC6FD959AC5FD949AC4FD6A
S11300D0C39A0E944900969895989498C398C3FD32
S11300E0969AC2FD959AC1FD949AC0FDC39A0E9446
S11300F04900C39A949A959A969ACF910895882321
S113010011F0C09A01C0C098C19ABB988C988D9880
S11301108E98C29A82E08A95F1F700C0B39902C022
S113012080E001C080E18499806285998064869929
S11301308068C29892E09A95F1F700C0C29A92E062
S11301409A95F1F700C0B39981608499826085998A
S1130150846086998860C298089580E00E947F0038
S11301608823DCF38AE08A95F1F700C080E00E94DE
S11301707F000895CF93C82F0E94AD0060E08C2FBC
S11301800E945000CF910895CF93C82F0E94AD00D4
S113019061E08C2F0E945000CF910895611104C03A
S11301A080580E94BA000895613021F480540E945E
S11301B0BA000895623021F480570E94BA0008956D
S11301C080530E94BA00089581E00E94BA00089505
S11301D082E00E94BA000895CF93C82F0E94AD0018
S11301E0CA30A1F4803148F090EC980F903138F087
S11301F08051803330F480E505C080E403C080E1A1
S113020001C080E080580E94BA0004C061E08C2FD5
S11302100E945000CF910895CF93DF93EC01219673
S1130220FC018081882329F00E94EC0089918111CE
S1130230FBCFDF91CF910895CF93C82FB89AB99A85
S1130240BA9ABB9A8C9A8D9A8E9A8FEF9CE70197F3
S1130250F1F700C00000949AC39A0E9449008FE00D
S113026097E20197F1F700C000000E9449009AEA62
S11302709A95F1F700C00E9449008AEA8A95F1F73D
S113028000C0C3980E9449009AEA9A95F1F700C009
S113029088E20E94BA0088E00E94BA000E94E4004A
S11302A086E00E94BA008C2F0E94BA00CF91089574
S11302B08FB9779BFECF8EB18FB108950F931F93A3
S11302C0CF93DF93C82FC4980E94580180935302A0
S11302D09C2F907E903231F118F4992339F062C04A
S11302E09036D1F1903A09F44FC05CC0CF712C2FF5
S11302F030E02A5031092230310510F0C03161F468
S1130300CFEBD0E00AEB10E08FEF0E9458018A9304
S1130310C017D107C9F746C08FEF0E9458018093D8
S1130320540240C0CF712C2F30E02A5031092230C2
S1130330310510F0C03159F4C4ECD0E00FEB10E0FB
S11303408A910E945801C017D107D1F72BC0809120
S113035054020E94580126C0C0FF10C0C091D102AF
S1130360CC2301F1D0E0CE52DD4F8FEF0E94580133
S11303708A9382E0C23DD807C1F714C08FEF0E9470
S11303805801809354020EC0C091D102CC2351F085
S1130390D0E0CE52DD4F8A910E94580182E0C23DE6
S11303A0D807C9F7C49A8AE18A95F1F700C0DF91AA
S11303B0CF911F910F9108951F920F920FB60F9234
S11303C011242F933F934F935F936F937F938F9356
S11303D09F93AF93BF93EF93FF9380919502811105
S11303E029C08FEF0E945E018091530285FF1EC0D9
S11303F082E08093520287E10E945E018091540260
S113040080FD2BC080E60E945E01809154028132FF
S113041048F48093D10281E60E945E0183E08093D8
S113042052021BC082EE0E945E0117C084E08093DA
S1130430520213C080E60E945E0180915402813210
S113044020F082EE0E945E0108C08093D10281E612
S11304500E945E0181E0809352028EE780935402F1
S113046087E20E945E0181EE0E945E01FF91EF919E
S1130470BF91AF919F918F917F916F915F914F91B8
S11304803F912F910F900FBE0F901F901895809160
S1130490500290915102892BF1F110925102109265
S11304A050029091BE008091C300981331C0909186
S11304B0BD008091C20098132BC09091BC00809124
S11304C0C100981325C09091BB008091C00098137F
S11304D01FC09091BA008091BF00981319C081EE9B
S11304E00E945E0180EA0E945E018FE19EE4019712
S11304F0F1F700C00000939A95E39A95F1F7000094
S113050093988FE19EE40197F1F700C000000895ED
S113051085E0809352020895CF93DF93D82F929A67
S1130520C49ABC9AC798BF9A93988B9ABD9ABE9A5C
S113053080E48ABF8BB780648BBF789480E58DB9E3
S11305402FE78FEA92E0215080409040E1F700C00D
S11305500000D0939502C1E0C093540281E20E944E
S11305605E01C093540282E20E945E0183E08093A4
S1130570540283E20E945E018FE28093540284E27B
S11305800E945E01C093540285E20E945E0186E2ED
S1130590809354020E945E018AE20E945E0180E31D
S11305A00E945E01C09354028CE30E945E0187E0C6
S11305B0809354028DE30E945E01D11116C08EE433
S11305C08093540280E20E945E012FEF80E792E064
S11305D0215080409040E1F700C0000081E090E0AD
S11305E090935102809350020DC08FE38093540284
S11305F080E20E945E018FE097E20197F1F700C06C
S11306000000939ADF91CF9108951F920F920FB635
S11306100F9211242F933F934F938F939F93EF93B4
S1130620FF934CB1842F90E090934D0280934C0241
S113063080914E0290914F029C012F5F3F4F309367
S11306404F0220934E02FC01EF53FD4F4083FF9174
S1130650EF919F918F914F913F912F910F900FBEEA
S11306600F901F901895AD9A08950F931F93CF93F1
S1130670DF9310924F0210924E02E0EBF0E08AEB0F
S113068090E0208132962CB9AFECB7E01197F1F7E6
S113069000C00000E817F907A1F78FE19EE4019775
S11306A0F1F700C0000041E08091C102813309F0FC
S11306B040E05091C20221E0503309F020E02423AD
S11306C03091C30271E0303309F070E0222311F05D
S11306D0711103C080E090E002C084E690E001E084
S11306E0313309F000E0222321F0002311F085E6E4
S11306F090E011E0323309F010E0222321F01123BD
S113070011F086E690E0D1E0333309F0D0E0222303
S113071021F0DD2311F087E690E0C1E0343309F0E5
S1130720C0E0222321F0CC2311F088E690E0B1E070
S1130730353309F0B0E0222321F0BB2311F089E620
S113074090E0A1E0363309F0A0E0222321F0AA23AF
S113075011F08AE690E0F1E0373309F0F0E022236B
S113076021F0FF2311F08BE690E0E1E0383309F04B
S1130770E0E0222321F0EE2311F08CE690E061E02A
S1130780393309F060E0222321F0662311F08DE66D
S113079090E021E0513309F020E0242321F0772375
S11307A011F08EE690E0222321F0002311F08FE671
S11307B090E0222321F0112311F080E790E022231E
S11307C021F0DD2311F081E790E0222321F0CC23F6
S11307D011F082E790E0222321F0BB2311F083E79C
S11307E090E0222321F0AA2311F084E790E0222351
S11307F021F0FF2311F085E790E0222321F0EE237E
S113080011F086E790E0222321F0662311F087E7B8
S113081090E021E0523309F020E0242321F07723F3
S113082011F088E790E0222321F0002311F089E7FA
S113083090E0222321F0112311F08AE790E0222393
S113084021F0DD2311F08BE790E0222321F0CC236B
S113085011F08CE790E0222321F0BB2311F08DE707
S113086090E0222321F0AA2311F08EE790E02223C6
S113087021F0FF2311F08FE790E0222321F0EE23F3
S113088011F080E890E0222321F0662311F081E842
S113089090E021E0533309F020E0242321F0772372
S11308A011F082E890E0222321F0002311F083E884
S11308B090E0222321F0112311F084E890E0222318
S11308C021F0DD2311F085E890E0222321F0CC23F0
S11308D011F086E890E0222321F0BB2311F087E891
S11308E090E0222321F0AA2311F088E890E022234B
S11308F021F0FF2311F089E890E0222321F0EE2378
S113090011F08AE890E0222321F0662311F08BE8AD
S113091090E0742341F021E0543309F020E02223D5
S113092011F08CE890E0462341F021E0593309F0BE
S113093020E0222311F087EC90E010924F021092F5
S11309404E02DF91CF911F910F910895E4EAF0E0F8
S113095020EB30E0408132964CB9AFECB7E0119710
S1130960F1F700C00000E217F307A1F70097A9F020
S113097040E050E020E030E0FB01E40FF51F40814F
S11309804CB9EFECF7E03197F1F700C000002F5FAE
S11309903F4FA9012817390779F78DE08CB98FECFF
S11309A097E00197F1F700C000008AE08CB9AFEC42
S11309B0B7E01197F1F700C000000895CF92DF92DD
S11309C0EF92FF920F931F93CF93DF9300D0CDB795
S11309D0DEB76C017B018C014AE0BE016F5F7F4F83
S11309E00E944718E4E9F0E024EA30E0808132967E
S11309F08CB98FEC97E00197F1F700C00000E21783
S1130A00F307A1F789818CB9EFECF7E03197F1F79F
S1130A1000C000008A818CB98FEC97E00197F1F750
S1130A2000C000008DE08CB9EFECF7E03197F1F7EE
S1130A3000C000008AE08CB98FEC97E00197F1F7D1
S1130A4000C00000CD28A1F020E030E080E090E07C
S1130A50F701E20FF31F20812CB9EFECF7E0319797
S1130A60F1F700C0000001969C010817190781F7EF
S1130A708DE08CB98FEC97E00197F1F700C000008E
S1130A808AE08CB9EFECF7E03197F1F700C0000091
S1130A900F900F90DF91CF911F910F91FF90EF90E6
S1130AA0DF90CF90089510924F0210924E02E2E828
S1130AB0F0E024E930E0408132964CB9AFECB7E085
S1130AC01197F1F700C00000E217F307A1F70097B0
S1130AD0A9F040E050E020E030E0FB01E40FF51F16
S1130AE040814CB9EFECF7E03197F1F700C000001A
S1130AF02F5F3F4FA9012817390779F78DE08CB98B
S1130B008FEC97E00197F1F700C000008AE08CB900
S1130B109FEFA1EEB4E09150A040B040E1F700C0D7
S1130B20000021E08091C102813309F020E040916E
S1130B30C20231E08091C302873309F030E081E0E2
S1130B40403309F080E0822311F0311103C080E0CA
S1130B5090E002C08BE690E0232341F021E0423391
S1130B6009F020E0222311F08FE790E010924F0269
S1130B7010924E020895E8E7F0E022E830E0408168
S1130B8032964CB9AFECB7E01197F1F700C0000012
S1130B90E217F307A1F70097A9F040E050E020E046
S1130BA030E0FB01E40FF51F40814CB9EFECF7E0B6
S1130BB03197F1F700C000002F5F3F4FA9012817BC
S1130BC0390779F78DE08CB98FEC97E00197F1F74D
S1130BD000C000008AE08CB9AFECB7E01197F1F7E0
S1130BE000C000000895CF93DF9380917600909128
S1130BF07700019741F081E090E090937700809333
S1130C0076000E948C02809152028130D9F4DE9ADF
S1130C1081E090E090934B0280934A02E2EDF2E08F
S1130C20A6E5B2E08CED92E021912D93CFECD7E0D4
S1130C302197F1F700C00000E817F907A9F710920F
S1130C405202DE988FE19EE40197F1F700C00000A4
S1130C50DF91CF910895CF93DF93809176009091A7
S1130C607700892B39F0109277001092760080E09B
S1130C700E948C02DF9AA3EAB2E0E2EDF2E021E006
S1130C8041E050E0C1EDD2E030915202332331F023
S1130C9050935102409350021092520228833D9186
S1130CA031938FEC97E00197F1F700C000002F5FBC
S1130CB02B3051F70E944702DF98DF91CF910895BE
S1130CC080911A0290911B02019709F41AC1209194
S1130CD01C0230911D02220F331F220F331F220FDB
S1130CE0331F8091280290912902880F991F880F41
S1130CF0991F822B932B20913E0230913F02822B2D
S1130D00932B2091380230913902220F331F822B0A
S1130D10932B2091B80240E1249F90011124822B4F
S1130D20932B909321028093200280913002909122
S1130D30310282959295907F9827807F9827209101
S1130D403C0230913D02822B932B90931F0280939F
S1130D501E0280910802909109029C01332730936E
S1130D6005022093040240910002509101020024E4
S1130D70569547950794569547950794542F402DBB
S1130D802091FE013091FF013695322F22273795AD
S1130D902795422B532B292F3327CA01822B932BC0
S1130DA0909303028093020283E48CB98FEC97E062
S1130DB00197F1F700C00000809124028CB98FECF8
S1130DC097E00197F1F700C00000809160028CB9B0
S1130DD08FEC97E00197F1F700C000008091BB020F
S1130DE08CB98FEC97E00197F1F700C00000809177
S1130DF0B9028CB98FEC97E00197F1F700C00000BD
S1130E008091CD028CB98FEC97E00197F1F700C087
S1130E100000809110038CB98FEC97E00197F1F7F3
S1130E2000C000008091FC028CB98FEC97E0019720
S1130E30F1F700C00000809166028CB98FEC97E056
S1130E400197F1F700C00000809100038CB98FEC8A
S1130E5097E00197F1F700C000008091A0028CB9DF
S1130E608FEC97E00197F1F700C000008091200219
S1130E708CB98FEC97E00197F1F700C000008091E6
S1130E801E028CB98FEC97E00197F1F700C00000C7
S1130E90809160008CB98FEC97E00197F1F700C066
S1130EA000008091B6028CB98FEC97E00197F1F7BE
S1130EB000C00000809102028CB98FEC97E001978A
S1130EC0F1F700C00000809104028CB98FEC97E028
S1130ED00197F1F700C0000084E48CB98FEC97E02F
S1130EE00197F1F700C0000010921D0210921C023D
S1130EF080914C0290914D029093230280932202A0
S1130F0008958FE295E70197F1F700C00000089576
S1130F1080E40E94BA0084E00E94C40088E00E9439
S1130F20C4008FE10E94C40089E00E94C40085E0EF
S1130F300E94C40081E00E94C40089E00E94C400B1
S1130F4087E00E94C4008FE80E94BA0080E00E94FB
S1130F50C400089580913002909131020297029763
S1130F6008F588E40E94BA0081E00E94C40081E090
S1130F700E94C40085E00E94C4008DE00E94C40069
S1130F808FE10E94C4008CE00E94C40084E00E94AF
S1130F90C40080E00E94C40080E80E94BA0081E09E
S1130FA00E94C40080913002909131028B7F01979E
S1130FB009F588E40E94BA0080E00E94C4008CE134
S1130FC00E94C4008EE10E94C4008FE10E94C4000C
S1130FD08FE10E94C4008FE10E94C4008FE10E944F
S1130FE0C4008FE10E94C4008CED0E94BA0081E02D
S1130FF00E94C400089580E50E94BA0080E00E9427
S1131000C40084E00E94C40084E00E94C4008FE114
S11310100E94C4008EE00E94C40084E00E94C400C8
S113102080E00E94C40080E00E94C4008AE80E941C
S1131030BA0082E00E94C40088E50E94BA0080E001
S11310400E94C40080E00E94C40084E00E94C400A6
S11310508EE00E94C4008FE10E94C40084E00E94DC
S1131060C40084E00E94C40080E00E94C40085E8BB
S11310700E94BA0083E00E94C40008958091260271
S1131080909127029C012E5D31092132310548F4EB
S1131090369527953695279530932502209324027B
S11310A00EC08F3F910538F088E090E090932502C0
S11310B08093240204C0109225021092240280E638
S11310C00E94BA008091240290912502089720F092
S11310D089E00E94C40003C088E00E94C40080919B
S11310E0240290912502079720F08DE10E94C4000C
S11310F003C08CE10E94C4008091240290912502D7
S1131100069720F085E10E94C40003C084E10E9498
S1131110C4008091240290912502059720F085E176
S11311200E94C40003C084E10E94C4008091240290
S113113090912502049720F085E10E94C40003C029
S113114084E10E94C40080912402909125020397B7
S113115020F085E10E94C40003C084E10E94C40021
S11311608091240290912502029720F085E10E944B
S1131170C40003C084E10E94C400809124029091C1
S11311802502892B21F08DE10E94C40003C08CE16B
S11311900E94C4008FED0E94BA0084E00E94C40043
S11311A0089581E090E090931D0280931C0288E6EC
S11311B00E94BA0084E00E94C40086E00E94C40039
S11311C087E00E94C40088E00E94C40082E00E947C
S11311D0C4008CE10E94C4008CE00E94C40084E03E
S11311E00E94C4008EED0E94BA0085E00E94C400F3
S11311F00895009749F463E080E00E94CE0086E100
S113120091E00E940C0108958130910511F580E769
S11312100E94BA0080E00E94C40080E00E94C400E2
S113122080E00E94C40080E00E94C40080E00E942C
S1131230C4008CE10E94C4008CE10E94C4008CE1D3
S11312400E94C40080ED0E94BA0086E00E94C4009F
S11312500895029709F580E70E94BA0080E00E9491
S1131260C40080E00E94C40080E00E94C40080E1C9
S11312700E94C40088E10E94C4008CE10E94C40062
S113128088E10E94C40080E10E94C40080ED0E94B5
S1131290BA0086E00E94C400089588E70E94BA005C
S11312A080E00E94C40084E00E94C40085E10E94A2
S11312B0C4008EE00E94C4008EE00E94C40085E158
S11312C00E94C40084E00E94C40080E00E94C40024
S11312D08DED0E94BA0087E00E94C4000895CF9269
S11312E0DF92EF92FF920F931F93CF93DF9380913E
S11312F0160290911702019709F4C5C0AF9AAE98EF
S11313002FEF80E792E0215080409040E1F700C049
S1131310000081E090E090930D0280930C0204ECB5
S113132010E0CDEAD2E0CC2EDD2EEE24E394F12CB5
S11313309BC0809161008F93809160008F931F9375
S11313400F93DF93CF930E946C184AE062EF72E030
S113135080916000909161000E94471863E08BE0E7
S11313600E94CE0082EF92E00E940C016C2D7D2D34
S113137089E090E00E94530590930F0280930E023F
S11313809FEF21EE84E0915020408040E1F700C0BF
S113139000000F900F900F900F900F900F9080917E
S11313A00E0290910F028B36910531F56C2D7D2D37
S11313B089E090E00E94BB059FEF21EE84E091500C
S11313C020408040E1F700C000000E943503909364
S11313D0B7028093B6029FEF20E782E0915020404D
S11313E08040E1F700C0000010920D0210920C0240
S11313F0F0920B02E0920A0280910E0290910F0289
S11314008F37910549F480916000909161000196B5
S113141090936100809360006C2D7D2D89E090E0B5
S11314200E94A6049FEF20E782E091502040804074
S1131430E1F700C000000E9435039093B702809347
S1131440B6029FEF20E782E0915020408040E1F710
S113145000C000008091B6029091B702892B21F060
S113146010920D0210920C0280910C0290910D02C8
S1131470019709F45ECFAF98AE9A81E090E0909323
S1131480090280930802DF91CF911F910F91FF9081
S1131490EF90DF90CF900895809160029091610267
S11314A0892BF1F480919F028F9380919E028F93F8
S11314B08091BC028F938091BB028F9380ED90E06A
S11314C09F938F9386E093E09F938F930E946C1871
S11314D08DB79EB708960FB6F8949EBF0FBE8DBF0A
S11314E080916002909161020197F1F480919F02D2
S11314F08F9380919E028F938091BC028F938091F1
S1131500BB028F9389ED90E09F938F9386E093E0E5
S11315109F938F930E946C188DB79EB708960FB651
S1131520F8949EBF0FBE8DBF80911003909111035C
S1131530892BF1F48091C0028F938091BF028F9325
S11315408091FD028F938091FC028F9380ED90E057
S11315509F938F9386E992E09F938F930E946C18D8
S11315608DB79EB708960FB6F8949EBF0FBE8DBF79
S113157080911003909111030197F1F48091C002BE
S11315808F938091BF028F938091FD028F938091FE
S1131590FC028F9389ED90E09F938F9386E992E00C
S11315A09F938F930E946C188DB79EB708960FB6C1
S11315B0F8949EBF0FBE8DBF80910703803219F44B
S11315C080E38093070380910A03803219F480E357
S11315D080930A0380910B03803219F480E3809393
S11315E00B0380910C03803219F480E380930C0385
S11315F080910D03803219F480E380930D03809170
S11316009702803219F480E38093970280919A02C2
S1131610803219F480E380939A0280919B02803295
S113162019F480E380939B0280919C02803219F428
S113163080E380939C0280919D02803219F480E3C0
S113164080939D028091120290911302019709F0F8
S1131650A0C04AE061E872E080910802909109021A
S11316600E9447188091810280936A0280918202CD
S113167080936B028091830280936C028091840238
S113168080936D0289E080936E029091060390939B
S11316906F029091070390937002909108039093C6
S11316A07102909109039093720290910A039093AE
S11316B0730290910B039093740290910C03909396
S11316C0750290910D039093760280937702809136
S11316D09602809378028093790280919702809396
S11316E07A028091980280937B0280919902809380
S11316F07C0280919A0280937D0280919B02809368
S11317007E0280919C0280937F0280919D0280934F
S11317108002AF9AAE989FE728E381E09150204081
S11317208040E1F700C0000080910A0290910B0212
S1131730019721F58091B6029091B702892BF1F4BB
S11317406AE672E087E190E00E94DE049FE728E306
S113175081E0915020408040E1F700C000000E94E9
S113176035039093B7028093B6029FE728E381E0A4
S1131770915020408040E1F700C00000AF98AE9A3D
S11317808091080290910902019690930902809336
S1131790080208958091300290913102892B09F05A
S11317A048C00E94E4000E94E80082EE90E00E949B
S11317B00C0162E085E00E94CE0083EF90E00E947D
S11317C00C018091380290913902019721F482E052
S11317D090E00E94F90880913E0290913F020197A7
S11317E021F481E090E00E94F908C89906C0809134
S11317F0220290912302019799F482E090E0909361
S113180031028093300210922302109222022FEFB1
S113181081EE94E0215080409040E1F700C0000048
S11318202FEF80E792E0215080409040E1F700C024
S113183000008091300290913102019709F002C1B9
S11318400E94E4000E94E8008AEF90E00E940C01EC
S113185061E080E00E94CE008BE091E00E940C01E8
S113186061E083E00E94CE0086E093E00E940C01D8
S113187062E080E00E94CE008FE091E00E940C01C3
S113188062E083E00E94CE0086E992E00E940C01AF
S11318908091120290911302019741F463E088E071
S11318A00E94CE0081E892E00E940C018091120215
S11318B090911302892B61F463E088E00E94CE00CA
S11318C083E191E00E940C01109201021092000247
S11318D00E943E088091380290913902019721F4C8
S11318E082E090E00E94F90880913E0290913F02CC
S11318F0019721F481E090E00E94F908E091B80298
S1131900F0E0EE0FFF1FEE59FF4F808191810197A8
S113191020916402309165022817390781F480917F
S1131920460290914702019751F40E94D108109207
S113193039021092380280E090E00E94F908C899B8
S113194006C08091220290912302019721F5809193
S1131950280290912902892BF1F480912A02909116
S11319602B02892BC1F481E090E0909329028093AB
S1131970280290932B0280932A029093370280933B
S1131980360210922302109222028FE19EE4019704
S1131990F1F700C00000C89904C010922B02109205
S11319A02A02C89906C080912202909123020197CD
S11319B021F580912802909129020197F1F48091F8
S11319C02A0290912B02892BC1F4109229021092C1
S11319D0280281E090E090932B0280932A02909356
S11319E037028093360210922302109222028FE172
S11319F09EE40197F1F700C00000C89904C010925A
S1131A002B0210922A0280912802909129020197B8
S1131A1011F40E944D0980911202909113020197D2
S1131A2041F40E94AA0781E090E090930102809320
S1131A3000029FEF20E782E0915020408040E1F7D0
S1131A4000C000008091300290913102029709F0A9
S1131A5058C20E94E4000E9488070E94AA070E94BC
S1131A60FB0780912E0290912F02039708F0D9C0B2
S1131A7061E081E00E94CE0088E191E00E940C01C7
S1131A8062E081E00E94CE0081E291E00E940C01BC
S1131A9063E081E00E94CE0088E291E00E940C01A4
S1131AA080912E0290912F02892B19F561E080E03C
S1131AB00E94CE008BE291E00E940C01CB9906C0FB
S1131AC08091220290912302049799F483E090E09C
S1131AD090933102809330021092230210922202DA
S1131AE09FEF21EE84E0915020408040E1F700C058
S1131AF0000080912E0290912F02019709F068C096
S1131B0062E080E00E94CE008BE291E00E940C0132
S1131B10CB9906C080912202909123020497F1F49C
S1131B208091280290912902892BC1F480912A0284
S1131B3090912B02892B91F481E090E090932902FB
S1131B408093280290932B0280932A02909335026B
S1131B50809334021092230210922202CB9904C083
S1131B6010922B0210922A02CB9906C08091220275
S1131B70909123020497F1F4809128029091290214
S1131B800197C1F480912A0290912B02892B91F440
S1131B90109229021092280281E090E090932B0287
S1131BA080932A0290933502809334021092230288
S1131BB010922202CB9904C010922B0210922A0296
S1131BC08091280290912902019711F40E944D09F5
S1131BD080912E0290912F02029719F563E080E024
S1131BE00E94CE008BE291E00E940C01CB9906C0CA
S1131BF08091220290912302049799F484E090E06A
S1131C0090933102809330021092230210922202A8
S1131C109FEF21EE84E0915020408040E1F700C026
S1131C20000080912E0290912F020397029708F0F2
S1131C30F4C061E081E00E94CE0088E291E00E945D
S1131C400C0162E081E00E94CE008DE291E00E94EE
S1131C500C0163E081E00E94CE0087E391E00E94E2
S1131C600C0180912E0290912F02039709F04BC032
S1131C7062E080E00E94CE008BE291E00E940C01C1
S1131C8081E090E00E94601A90E090931B028093A0
S1131C901A02CB9B13C0019789F08091180290918E
S1131CA01902892B59F461E081E090E00E94681ADE
S1131CB081E090E09093190280931802CB9904C0BC
S1131CC01092190210921802CB9B17C080911A022D
S1131CD090911B02019789F4809118029091190246
S1131CE0892B59F460E081E090E00E94681A81E059
S1131CF090E09093190280931802CB9904C010923B
S1131D0019021092180280912E0290912F020497CA
S1131D1009F04BC063E080E00E94CE008BE291E0CA
S1131D200E940C0180E090E00E94601A90E0909381
S1131D30170280931602CB9B13C0019789F0809100
S1131D40140290911502892B59F461E080E090E02F
S1131D500E94681A81E090E0909315028093140227
S1131D60CB9904C01092150210921402CB9B17C099
S1131D708091160290911702019789F480911402C0
S1131D8090911502892B59F460E080E090E00E9464
S1131D90681A81E090E09093150280931402CB9925
S1131DA004C0109215021092140280911A029091AC
S1131DB01B02019741F462E08BE00E94CE0080E4B4
S1131DC091E00E940C0180911A0290911B02892BD0
S1131DD041F462E08BE00E94CE0084E491E00E9432
S1131DE00C018091160290911702019741F463E06F
S1131DF08BE00E94CE0080E491E00E940C0180916F
S1131E00160290911702892B41F463E08BE00E9443
S1131E10CE0084E491E00E940C019FEF20E782E071
S1131E20915020408040E1F700C00000C99906C0ED
S1131E3080912202909123020297B1F480912E02A4
S1131E4090912F02019690932F0280932E0210926C
S1131E502302109222029FEF21EE84E09150204051
S1131E608040E1F700C0000080912E0290912F0283
S1131E70059724F010922F0210922E02CA9906C0E0
S1131E8080912202909123020397B1F480912E0253
S1131E9090912F02019790932F0280932E0210921B
S1131EA02302109222029FEF21EE84E09150204001
S1131EB08040E1F700C0000080912E0290912F0233
S1131EC0992334F484E090E090932F0280932E02BF
S1131ED0C89906C08091220290912302019789F447
S1131EE010923102109230021092230210922202B8
S1131EF09FEF21EE84E0915020408040E1F700C044
S1131F0000008091300290913102039709F0BBC127
S1131F100E94E40063E08BE00E94CE0082E090E047
S1131F200E94601A8093B802811104C087E491E092
S1131F300E940C018091B802813021F48DE491E07B
S1131F400E940C018091B802823021F483E591E073
S1131F500E940C018091B802833021F489E591E05C
S1131F600E940C018091B802843021F48FE591E045
S1131F700E940C0180912C0290912D02039708F08D
S1131F8096C00E9488070E94AA070E94FB0761E08E
S1131F9081E00E94CE0085E691E00E940C0162E09F
S1131FA081E00E94CE0088E691E00E940C0163E08B
S1131FB081E00E94CE008BE691E00E940C018091AA
S1131FC02C0290912D02892B11F561E080E00E9492
S1131FD0CE008BE291E00E940C01CB9906C0809167
S1131FE0220290912302049791F460E082E090E051
S1131FF00E94681A10922302109222029FEF21EE8F
S113200084E0915020408040E1F700C000008091BE
S11320102C0290912D02019711F562E080E00E945C
S1132020CE008BE291E00E940C01CB9906C0809116
S1132030220290912302049791F461E082E090E0FF
S11320400E94681A10922302109222029FEF21EE3E
S113205084E0915020408040E1F700C0000080916E
S11320602C0290912D02029711F563E080E00E940A
S1132070CE008BE291E00E940C01CB9906C08091C6
S1132080220290912302049791F462E082E090E0AE
S11320900E94681A10922302109222029FEF21EEEE
S11320A084E0915020408040E1F700C0000080911E
S11320B02C0290912D020397029708F06EC00E94A3
S11320C088070E94AA070E94FB0761E081E00E9442
S11320D0CE008BE691E00E940C0162E081E00E9458
S11320E0CE008FE691E00E940C0163E081E00E9443
S11320F0CE0083E791E00E940C0180912C02909124
S11321002D02039711F562E080E00E94CE008BE27D
S113211091E00E940C01CB9906C08091220290911B
S11321202302049791F463E082E090E00E94681A2D
S113213010922302109222029FEF21EE84E091502C
S113214020408040E1F700C0000080912C02909173
S11321502D02049711F563E080E00E94CE008BE22B
S113216091E00E940C01CB9906C0809122029091CB
S11321702302049791F464E082E090E00E94681ADC
S113218010922302109222029FEF21EE84E09150DC
S113219020408040E1F700C00000C99906C080914A
S11321A02202909123020297B1F480912C02909123
S11321B02D02019690932D0280932C0210922302FB
S11321C0109222029FEF21EE84E091502040804043
S11321D0E1F700C0000080912C0290912D02059738
S11321E024F010922D0210922C02CA9906C08091FC
S11321F02202909123020397B1F480912C029091D2
S11322002D02019790932D0280932C0210922302A9
S1132210109222029FEF21EE84E0915020408040F2
S1132220E1F700C0000080912C0290912D029923C7
S113223034F484E090E090932D0280932C02C899AA
S113224006C08091220290912302019799F482E0C2
S113225090E0909331028093300210922302109206
S113226022029FEF21EE84E0915020408040E1F76C
S113227000C000009FEF20E782E0915020408040A2
S1132280E1F700C000008091300290913102049780
S113229009F041C04AE062E173E08091A0029091AC
S11322A0A1020E9447180E94E4000E94880762E08D
S11322B080E00E94CE0086E791E00E940C0162E07B
S11322C083E00E94CE0082E193E00E940C01C89951
S11322D006C08091220290912302019799F482E032
S11322E090E0909331028093300210922302109276
S11322F022029FEF21EE84E0915020408040E1F7DC
S113230000C000009FEF20E782E091502040804011
S1132310E1F700C0000080913002909131020597EE
S113232009F008C10E94E4000E94E8008AE791E0F5
S11323300E940C010E94880761E080E00E94CE00A8
S113234081E891E00E940C0162E080E00E94CE00EE
S113235088E891E00E940C01809138029091390242
S1132360019721F482E090E00E94F90880913E02F6
S113237090913F02019721F481E090E00E94F908D6
S113238080913A0290913B02019751F40E94D10846
S1132390109239021092380280E090E00E94F9080D
S11323A08091120290911302019741F40E94AA07AE
S11323B081E090E0909301028093000280911202E8
S11323C090911302892B21F41092010210920002C1
S11323D09FEF20E782E0915020408040E1F700C069
S11323E0000010923B0210923A0263E08EE00E94D9
S11323F0CE0086E191E00E940C01C89906C080914C
S1132400220290912302019789F4109231021092D2
S1132410300210922302109222029FEF21EE84E0F8
S1132420915020408040E1F700C00000CA9B06C0E4
S11324308091160290911702019731F48091220243
S113244090912302039749F580911202909113020F
S1132450892B19F58091100290911102892BE9F4CE
S113246081E090E090931302809312029093110202
S11324708093100210922302109222021092FD0106
S11324801092FC010E946F099FEF21EE84E09150AD
S113249020408040E1F700C00000CA990AC0809142
S11324A0160290911702019721F0109211021092D6
S11324B01002CA9B06C080911602909117020197E0
S11324C031F48091220290912302039739F580918F
S11324D0120290911302019709F5809110029091D4
S11324E01102892BD9F4109213021092120281E086
S11324F090E09093110280931002109223021092A4
S1132500220290936100809360009FEF21EE84E0AB
S1132510915020408040E1F700C00000CA990AC0F1
S11325208091160290911702019721F010921102E6
S1132530109210028091300290913102069709F0B6
S1132540D7C00E94E4000E94E8008FE891E00E9456
S11325500C0162E085E00E94CE0080EA91E00E94D6
S11325600C0180913C0290913D020197A9F463E033
S113257080E00E94CE0087EA91E00E940C01109254
S11325804702109246029FEF21EE84E091502040D2
S11325908040E1F700C0000080913C0290913D0230
S11325A00297A9F463E080E00E94CE0088EB91E0FA
S11325B00E940C0110924302109242029FEF21EEFE
S11325C084E0915020408040E1F700C00000C899A9
S11325D006C080912202909123020197C9F41092BF
S11325E04902109248021092410210924002109245
S11325F031021092300210922302109222029FEFB5
S113260021EE84E0915020408040E1F700C00000BA
S1132610CB9906C080912202909123020497C9F4B9
S113262080913C0290913D02019799F481E090E001
S1132630909333028093320210922302109222026A
S11326409FEF21EE84E0915020408040E1F700C0EC
S1132650000080913202909133020197F1F4CB9BF8
S113266006C08091220290912302892BB1F410922A
S113267049021092480281E090E0909331028093E5
S11326803002909347028093460210923D021092CA
S11326903C021092330210923202CB9906C0809110
S11326A0220290912302049719F580913C029091A3
S11326B03D020297E9F4109241021092400285E033
S11326C090E0909331028093300281E090E0909307
S11326D043028093420210922302109222029FEF3F
S11326E021EE84E0915020408040E1F700C00000DA
S11326F08091300290913102079709F063C10E94E2
S1132700E40062E081E00E94CE0089EC91E00E9446
S11327100C018091FA019091FB01019729F10E942B
S1132720E80088ED91E00E940C0163E081E00E94E2
S1132730CE0081EE91E00E940C0163E086E00E94ED
S1132740CE004AE06BE872E08091B6029091B70245
S11327500E9447188BE892E00E940C018091FA01D4
S11327609091FB01019761F4109247021092460286
S113277063E081E00E94CE0087EE91E00E940C01AC
S11327800E9488078091380290913902019721F4C0
S113279082E090E00E94F90880913E0290913F020D
S11327A0019721F481E090E00E94F90880913A02B7
S11327B090913B02019751F40E94D1081092390282
S11327C01092380280E090E00E94F9089FEF20E721
S11327D082E0915020408040E1F700C00000109258
S11327E0130210921202C89906C08091220290919D
S11327F023020197F9F4109223021092220281E03D
S113280090E09093FD018093FC01109209021092D4
S113281008021092FB011092FA01109231021092F8
S113282030029FEF21EE84E0915020408040E1F798
S113283000C000008091FA019091FB01019709F416
S1132840C1C08091460290914702019751F481E002
S113285090E09093F7018093F60110924702109252
S11328604602CA9906C080912202909123020397DE
S1132870B9F41092230210922202AF9AAE980E94E9
S113288035039093B7028093B6029FEF24E38CE064
S1132890915020408040E1F700C00000AF98AE9A0C
S11328A0CB9906C08091220290912302049779F477
S11328B01092230210922202AD989FEF21EE84E041
S11328C0915020408040E1F700C00000AD9A809113
S11328D0F6019091F701019709F06BC08091F8011E
S11328E09091F901459708F464C0AD989FEF21EEEB
S11328F084E0915020408040E1F700C00000AD9A90
S11329009FE728E381E0915020408040E1F700C038
S11329100000AF9AAE989FE728E381E091502040F1
S11329208040E1F700C000000E9435039093B70295
S11329308093B6029FE728E381E0915020408040D5
S1132940E1F700C00000AF98AE9A63E086E00E9411
S1132950CE004AE06BE872E08091B6029091B70233
S11329600E9447188BE892E00E940C019FE728E33D
S113297081E0915020408040E1F700C000001092B7
S1132980F9011092F8019C9914C00E946F0981E02A
S113299090E09093470280934602909313028093B1
S11329A012021092F7011092F60190933102809373
S11329B030028091F8019091F90101969093F90108
S11329C08093F8010895CF93DF9300D01F92CDB781
S11329D0DEB788E98AB986E880BD83E389B980ECEB
S11329E08ABB80EE84BB809176000E948C028CE0CE
S11329F00E941C0182E090E00E94601A8093B80259
S1132A0081E090E00E94601A90E090931B02809312
S1132A101A0280E090E00E94601A90E090931702FE
S1132A20809316027894DE9ADF9A2FEF60E772E0C3
S1132A30215060407040E1F700C00000DE98DF984C
S1132A400E943303AF98AE9A0F2EF3EA6F2EF2E092
S1132A507F2EF02D0F2EF4EA4F2EF2E05F2EF02D94
S1132A6008E212E00F2EF5EACF2EF2E0DF2EF02D71
S1132A700F2EF6EAEF2EF2E0FF2EF02D0F2EF7EADE
S1132A80AF2EF2E0BF2EF02D0E94CA0B0E94F30578
S1132A908091460290914702019749F4809148023F
S1132AA090914902019690934902809348020E94B2
S1132AB0600680914A0290914B02019709F0E8C0A8
S1132AC0A6E5B2E08C91813409F0B7C080915F0231
S1132AD0823409F0D9C0109249021092480281E070
S1132AE090E0909339028093380280905702E82D49
S1132AF0F0E0F093D002E093CF024091580250E00E
S1132B0050930503409304032091590230E030931D
S1132B1019032093180380915A0290E0909327029E
S1132B208093260290905B02692D70E0709394026A
S1132B306093930280915C0290E09093FF028093F3
S1132B40FE02A0915D022A2E312C309201032092C4
S1132B50000330920F0320920E03A0915E02B0E0B6
S1132B60B093A102A093A002DF01AA0FAB2FAA1F6A
S1132B70BB0BB195B0939202A0939102E82DEF772D
S1132B802E2E312C3092BC022092BB02309269026C
S1132B9020926802342E2224F101E22BF32BF093CD
S1132BA09F02E0939E02F0931B03E0931A03FB0140
S1132BB0EE0FEF2FEE1FFF0BF195F093BE02E093A3
S1132BC0BD02692D6F77262E312C3092030320929B
S1132BD00203982E88246091000370910103862AD1
S1132BE0972A9092C0028092BF029092CC02809267
S1132BF0CB02B0936102A09360025093BA02409357
S1132C00B9023093CE022093CD02F0931103E093E6
S1132C1010033092FD022092FC029093670280938D
S1132C20660210924B0210924A02809146029091E1
S1132C304702019711F40E944C0AA6E5B2E08C9178
S1132C408B3411F580915F028B34F1F481E090E0D4
S1132C5090933F0280933E021092430210924202EC
S1132C60109241021092400210923B0210923A02DA
S1132C70109239021092380210924B0210924A02BA
S1132C8080915F028B3421F010923F0210923E0239
S1132C908091300290913102009719F4CB9935C09C
S1132CA023C08530910519F4CB992FC026C08130FB
S1132CB09105D1F4E091B802F0E0EE0FFF1FEE5958
S1132CC0FF4F8081918101972091640230916502C8
S1132CD02817390709F04BC08091460290914702AA
S1132CE0019709F044C011C0009739F48091220281
S1132CF0909123020497D9F508C00597C1F58091F6
S1132D00220290912302049791F581E090E0909340
S1132D1031028093300290934702809346021092CE
S1132D202302109222028EE4F3018083D8019C9145
S1132D30F20190839091B802D6019C93F7018083AD
S1132D40D5018C938093A8028093A9028093AA0250
S1132D508093AB028093AC020E942B06BFEFE0E7A6
S1132D60F2E0B150E040F040E1F700C00000809193
S1132D70360290913702019709F041C06AE070E091
S1132D800F2EFEE49F2EF02D0F2EF9EA2F2EF2E0E7
S1132D903F2EF02D7A836983D3019C92F8018081C0
S1132DA0D2018C938091B802F6018083D7019C9262
S1132DB0F5019082A8EAB2E09C92F1019082AAEA1D
S1132DC0B2E09C92EBEAF2E09082ACEAB2E09C9230
S1132DD00E942B06BFEFE0E7F2E0B150E040F04084
S1132DE0E1F700C0000069817A81615071097A833A
S1132DF06983672B89F6109237021092360280910C
S1132E00420290914302019731F481E090E0909363
S1132E1045028093440280913002909131020197DF
S1132E2041F4CB990CC08091220290912302049723
S1132E3031F08091060290910702019771F481E0CC
S1132E4090E09093450280934402909343028093D0
S1132E504202109223021092220280914402909125
S1132E604502019741F08091340290913502019717
S1132E7009F064C00CC0809134029091350201972E
S1132E8031F085E090E0909331028093300210920B
S1132E904702109246021092070210920602809195
S1132EA04002909141020196909341028093400226
S1132EB0029730F081E090E090933B0280933A02D5
S1132EC086E4D3018C93F8019081D2019C93909174
S1132ED0B802F6019083D7018C93F5018083809327
S1132EE0A8028093A9028093AA028093AB028093E4
S1132EF0AC020E942B060E9460060F2EF4E68F2E71
S1132F00912CF02D0E94F3058FE99FE00197F1F7D2
S1132F1000C0000080914A0290914B02019731F069
S1132F2091E0891A91088114910461F71092450285
S1132F301092440210923502109234022091B80289
S1132F4030E0F901EE0FFF1FE459FF4F408151813A
S1132F5080914802909149024817590760F461E052
S1132F6070E070933D0260933C0266E070E0709301
S1132F7031026093300260914002709141026730E7
S1132F80710508F457C042E050E050933D0240936D
S1132F903C0246E050E0509331024093300204C0BA
S1132FA010923D0210923C02F901EE0FFF1FEE5900
S1132FB0FF4F608171810E941F18609362027093B9
S1132FC0630280936402909365028091160290914B
S1132FD017020197D1F09C9B06C08091FC0190914F
S1132FE0FD01892B31F08091FA019091FB01019749
S1132FF061F487E090E0909331028093300281E0A5
S113300090E09093FF018093FE019C9904C010927C
S1133010FF011092FE0180910802909109028F3005
S1133020974208F431CD81E090E09093FB018093C6
S1133030FA012ACD4817590708F4B6CFB1CF97FB48
S1133040072E16F4009407D077FD09D00E94331898
S113305007FC05D03EF4909581959F4F0895709597
S113306061957F4F0895AA1BBB1B51E107C0AA1F9E
S1133070BB1FA617B70710F0A61BB70B881F991F15
S11330805A95A9F780959095BC01CD010895BB2769
S11330904A3031F4992322F4BDE2909581959F4FF3
S11330A00C945318BB27FB015527AA27880F991F97
S11330B0AA1FA41710F0A41B83955051B9F7A05D63
S11330C0AA3308F0A95DA193009779F7B111B193E0
S11330D01192CB010C948B1AAEE0B0E0E2E7F8E178
S11330E00C94391B0D891E8986E08C831A8309830D
S11330F08FEF9FE79E838D83AE01475E5F4F6F899D
S1133100788DCE0101960E948E18EF81F885E00F2C
S1133110F11F10822E96E4E00C94551BACE0B0E055
S1133120E4E9F8E10C942B1B7C016B018A01FC019E
S113313017821682838181FFBDC1CE0101964C01A5
S1133140F7019381F60193FD859193FF81916F01BE
S1133150882309F4ABC1853239F493FD859193FF3B
S113316081916F01853229F4B70190E00E949B1A86
S1133170E7CF512C312C20E02032A0F48B3269F0BF
S113318030F4803259F0833269F420612CC08D32DE
S113319039F0803339F4216026C02260246023C0D2
S11331A0286021C027FD27C030ED380F3A3078F46D
S11331B026FF06C0FAE05F9E300D1124532E13C083
S11331C08AE0389E300D1124332E20620CC08E32DA
S11331D021F426FD6BC1206406C08C3611F42068EE
S11331E002C0883641F4F60193FD859193FF8191E5
S11331F06F018111C1CF982F9F7D9554933028F48E
S11332000C5F1F4FFFE3F9830DC0833631F0833722
S113321071F0833509F05BC022C0F8018081898395
S11332200E5F1F4F44244394512C540115C03801A0
S1133230F2E06F0E711CF801A080B18026FF03C07C
S1133240652D70E002C06FEF7FEFC5012C870E94EF
S1133250801A2C0183012C852F77222E17C0380168
S1133260F2E06F0E711CF801A080B18026FF03C04C
S1133270652D70E002C06FEF7FEFC5012C870E94BF
S1133280751A2C012C852068222E830123FC1BC077
S1133290832D90E048165906B0F4B70180E290E01F
S11332A00E949B1A3A94F4CFF50127FC859127FEDE
S11332B081915F01B70190E00E949B1A31103A940A
S11332C0F1E04F1A51084114510471F7E5C08436F6
S11332D011F0893639F5F80127FF07C06081718143
S11332E0828193810C5F1F4F08C0608171818827A0
S11332F077FD8095982F0E5F1F4F2F76B22E97FF84
S113330009C090958095709561957F4F8F4F9F4F21
S11333102068B22E2AE030E0A4010E94CD1AA82E23
S1133320A81844C0853729F42F7EB22E2AE030E055
S113333025C0F22FF97FBF2E8F36C1F018F48835DF
S113334079F0B4C0803719F0883721F0AFC02F2F3F
S11333502061B22EB4FE0DC08B2D8460B82E09C03E
S113336024FF0AC09F2F9660B92E06C028E030E0E3
S113337005C020E130E002C020E132E0F801B7FEF0
S113338007C060817181828193810C5F1F4F06C0E9
S11333906081718180E090E00E5F1F4FA4010E9464
S11333A0CD1AA82EA818FB2DFF77BF2EB6FE0BC092
S11333B02B2D2E7FA51450F4B4FE0AC0B2FC08C015
S11333C02B2D2E7E05C07A2C2B2D03C07A2C01C008
S11333D0752C24FF0DC0FE01EA0DF11D80818033A0
S11333E011F4297E09C022FF06C07394739404C0AB
S11333F0822F867809F0739423FD13C020FF06C042
S11334005A2C731418F4530C5718732C731468F44F
S1133410B70180E290E02C870E949B1A73942C855C
S1133420F5CF731410F4371801C0312C24FF12C0E7
S1133430B70180E390E02C870E949B1A2C8522FF21
S113344017C021FF03C088E590E002C088E790E040
S1133450B7010CC0822F867859F021FD02C080E2AA
S113346001C08BE227FD8DE2B70190E00E949B1A18
S1133470A51438F4B70180E390E00E949B1A5A9493
S1133480F7CFAA94F401EA0DF11D8081B70190E011
S11334900E949B1AA110F5CF332009F451CEB70135
S11334A080E290E00E949B1A3A94F6CFF70186815D
S11334B0978102C08FEF9FEF2C96E2E10C94471B9B
S11334C0E199FECF9FBB8EBBE09A99278DB30895F7
S11334D0262FE199FECF9FBB8EBB2DBB0FB6F89470
S11334E0E29AE19A0FBE01960895FC01059061509D
S11334F070400110D8F7809590958E0F9F1F089506
S1133500FC016150704001900110D8F780959095AE
S11335108E0F9F1F0895DC01FC01672F71917723A3
S1133520E1F7329704C07C916D9370836291AE177A
S1133530BF07C8F308950F931F93CF93DF93182FFA
S1133540092FEB018B8181FD03C08FEF9FEF20C01A
S113355082FF10C04E815F812C813D814217530749
S11335607CF4E881F9819F012F5F3F4F39832883E1
S1133570108306C0E885F985812F0995892B29F7E1
S11335802E813F812F5F3F4F3F832E83812F902FCA
S1133590DF91CF911F910F910895FA01AA27283046
S11335A051F1203181F1E8946F936E7F6E5F7F4F0C
S11335B08F4F9F4FAF4FB1E03ED0B4E03CD0670F88
S11335C0781F891F9A1FA11D680F791F8A1F911DDB
S11335D0A11D6A0F711D811D911DA11D20D009F42B
S11335E068943F912AE0269F11243019305D31936D
S11335F0DEF6CF010895462F4770405D4193B3E056
S11336000FD0C9F7F6CF462F4F70405D4A3318F0FC
S1133610495D31FD4052419302D0A9F7EACFB4E0AD
S1133620A6959795879577956795BA95C9F7009765
S11336306105710508959B01AC010A2E0694579506
S1133640479537952795BA95C9F7620F731F841F5D
S1133650951FA01D08952F923F924F925F926F92F3
S11336607F928F929F92AF92BF92CF92DF92EF920E
S1133670FF920F931F93CF93DF93CDB7DEB7CA1B8F
S1133680DB0B0FB6F894DEBF0FBECDBF09942A88BA
S1133690398848885F846E847D848C849B84AA8462
S11336A0B984C884DF80EE80FD800C811B81AA81EF
S11336B0B981CE0FD11D0FB6F894DEBF0FBECDBFBA
S10B36C0ED010895F894FFCF19
S11336C8010014002D005500E600C7016400E10064
S11336D8A901B202370501006E00650077000D00EC
S11336E80A0066006E0065007800690073007400C3
S11336F80D000A0061007000700065006E0064002F
S11337080D000A006F00700065006E000D000A00CD
S11337187200730070000D000A0000010307000026
S11337280103070057444C5F2531752E786C7400EB
S11337382B2532752E253475002D2532752E25340A
S1133748750052756E2020202020202020205365EB
S113375874740057444C2076330053746F702020DF
S113376820202020202046696E2E0054313A00542F
S1133778323A002020202000496E74657276616C0C
S11337880046696E646572004944003E00496E74DF
S11337986572666163650044617461204C6F6700FB
S11337A84F6666004F6E002832732029002835734F
S11337B82029002831307329002833307329002840
S11337C8316D2029003273003573003130730033B2
S11337D8307300316D0049443A0052756E20444CF0
S11337E80054313A202D2D0054323A202D2D005208
S11337F86574727920202020202052657365740036
S11338084552524F522100526563656976652054CA
S1133818696D656F75742E004F66662041636B2071
S113382854696D656F75742E004D6963726F5344E6
S1133838204572726F722100527374202052737083
S113384800436F64653A00436F756E746572203E79
S109385820393939390062
S9030000FC
